{
  "_format": "hh-sol-artifact-1",
  "contractName": "MswPortal",
  "sourceName": "contracts/MswPortal.sol",
  "abi": [
    {
      "inputs": [
        {
          "internalType": "address[]",
          "name": "_approvers",
          "type": "address[]"
        },
        {
          "internalType": "uint256",
          "name": "_quorum",
          "type": "uint256"
        }
      ],
      "stateMutability": "nonpayable",
      "type": "constructor"
    },
    {
      "inputs": [
        {
          "internalType": "address",
          "name": "",
          "type": "address"
        },
        {
          "internalType": "uint256",
          "name": "",
          "type": "uint256"
        }
      ],
      "name": "approvals",
      "outputs": [
        {
          "internalType": "bool",
          "name": "",
          "type": "bool"
        }
      ],
      "stateMutability": "view",
      "type": "function"
    },
    {
      "inputs": [
        {
          "internalType": "uint256",
          "name": "",
          "type": "uint256"
        }
      ],
      "name": "approvers",
      "outputs": [
        {
          "internalType": "address",
          "name": "",
          "type": "address"
        }
      ],
      "stateMutability": "view",
      "type": "function"
    },
    {
      "inputs": [
        {
          "internalType": "uint256",
          "name": "amount",
          "type": "uint256"
        },
        {
          "internalType": "address payable",
          "name": "to",
          "type": "address"
        }
      ],
      "name": "createTransfer",
      "outputs": [],
      "stateMutability": "nonpayable",
      "type": "function"
    },
    {
      "inputs": [],
      "name": "getApprovers",
      "outputs": [
        {
          "internalType": "address[]",
          "name": "",
          "type": "address[]"
        }
      ],
      "stateMutability": "view",
      "type": "function"
    },
    {
      "inputs": [],
      "name": "getTransfers",
      "outputs": [
        {
          "components": [
            {
              "internalType": "uint256",
              "name": "id",
              "type": "uint256"
            },
            {
              "internalType": "uint256",
              "name": "amount",
              "type": "uint256"
            },
            {
              "internalType": "address payable",
              "name": "to",
              "type": "address"
            },
            {
              "internalType": "uint256",
              "name": "approvals",
              "type": "uint256"
            },
            {
              "internalType": "bool",
              "name": "sent",
              "type": "bool"
            }
          ],
          "internalType": "struct MswPortal.Transfer[]",
          "name": "",
          "type": "tuple[]"
        }
      ],
      "stateMutability": "view",
      "type": "function"
    },
    {
      "inputs": [],
      "name": "quorum",
      "outputs": [
        {
          "internalType": "uint256",
          "name": "",
          "type": "uint256"
        }
      ],
      "stateMutability": "view",
      "type": "function"
    },
    {
      "inputs": [
        {
          "internalType": "uint256",
          "name": "",
          "type": "uint256"
        }
      ],
      "name": "transfers",
      "outputs": [
        {
          "internalType": "uint256",
          "name": "id",
          "type": "uint256"
        },
        {
          "internalType": "uint256",
          "name": "amount",
          "type": "uint256"
        },
        {
          "internalType": "address payable",
          "name": "to",
          "type": "address"
        },
        {
          "internalType": "uint256",
          "name": "approvals",
          "type": "uint256"
        },
        {
          "internalType": "bool",
          "name": "sent",
          "type": "bool"
        }
      ],
      "stateMutability": "view",
      "type": "function"
    }
  ],
  "bytecode": "0x60806040523480156200001157600080fd5b506040516200106d3803806200106d8339818101604052810190620000379190620002f4565b81600090805190602001906200004f92919062000176565b5080600181905550620000a26040518060400160405280600f81526020017f436f6e7472616374206c6f616465640000000000000000000000000000000000815250620000aa60201b620004eb1760201c565b50506200051a565b6200014a81604051602401620000c191906200038f565b6040516020818303038152906040527f41304fac000000000000000000000000000000000000000000000000000000007bffffffffffffffffffffffffffffffffffffffffffffffffffffffff19166020820180517bffffffffffffffffffffffffffffffffffffffffffffffffffffffff83818316178352505050506200014d60201b60201c565b50565b60008151905060006a636f6e736f6c652e6c6f679050602083016000808483855afa5050505050565b828054828255906000526020600020908101928215620001f2579160200282015b82811115620001f15782518260006101000a81548173ffffffffffffffffffffffffffffffffffffffff021916908373ffffffffffffffffffffffffffffffffffffffff1602179055509160200191906001019062000197565b5b50905062000201919062000205565b5090565b5b808211156200022057600081600090555060010162000206565b5090565b60006200023b6200023584620003e7565b620003b3565b905080838252602082019050828560208602820111156200025b57600080fd5b60005b858110156200028f578162000274888262000299565b8452602084019350602083019250506001810190506200025e565b5050509392505050565b600081519050620002aa81620004e6565b92915050565b600082601f830112620002c257600080fd5b8151620002d484826020860162000224565b91505092915050565b600081519050620002ee8162000500565b92915050565b600080604083850312156200030857600080fd5b600083015167ffffffffffffffff8111156200032357600080fd5b6200033185828601620002b0565b92505060206200034485828601620002dd565b9150509250929050565b60006200035b8262000416565b62000367818562000421565b93506200037981856020860162000470565b6200038481620004d5565b840191505092915050565b60006020820190508181036000830152620003ab81846200034e565b905092915050565b6000604051905081810181811067ffffffffffffffff82111715620003dd57620003dc620004a6565b5b8060405250919050565b600067ffffffffffffffff821115620004055762000404620004a6565b5b602082029050602081019050919050565b600081519050919050565b600082825260208201905092915050565b60006200043f8262000446565b9050919050565b600073ffffffffffffffffffffffffffffffffffffffff82169050919050565b6000819050919050565b60005b838110156200049057808201518184015260208101905062000473565b83811115620004a0576000848401525b50505050565b7f4e487b7100000000000000000000000000000000000000000000000000000000600052604160045260246000fd5b6000601f19601f8301169050919050565b620004f18162000432565b8114620004fd57600080fd5b50565b6200050b8162000466565b81146200051757600080fd5b50565b610b43806200052a6000396000f3fe608060405234801561001057600080fd5b506004361061007d5760003560e01c80636cb3e8ef1161005b5780636cb3e8ef146100da5780639377d711146100f8578063d3650fb81461012c578063ffabc6731461015c5761007d565b80631703a018146100825780632f65142c146100a05780634c12fa47146100be575b600080fd5b61008a61018c565b604051610097919061092e565b60405180910390f35b6100a8610192565b6040516100b591906108cf565b60405180910390f35b6100d860048036038101906100d39190610651565b610280565b005b6100e261037c565b6040516100ef91906108ad565b60405180910390f35b610112600480360381019061010d9190610628565b61040a565b604051610123959493929190610949565b60405180910390f35b61014660048036038101906101419190610628565b61047d565b6040516101539190610892565b60405180910390f35b610176600480360381019061017191906105ec565b6104bc565b60405161018391906108f1565b60405180910390f35b60015481565b60606002805480602002602001604051908101604052809291908181526020016000905b8282101561027757838290600052602060002090600502016040518060a001604052908160008201548152602001600182015481526020016002820160009054906101000a900473ffffffffffffffffffffffffffffffffffffffff1673ffffffffffffffffffffffffffffffffffffffff1673ffffffffffffffffffffffffffffffffffffffff168152602001600382015481526020016004820160009054906101000a900460ff161515151581525050815260200190600101906101b6565b50505050905090565b60026040518060a0016040528060028054905081526020018481526020018373ffffffffffffffffffffffffffffffffffffffff16815260200160008152602001600015158152509080600181540180825580915050600190039060005260206000209060050201600090919091909150600082015181600001556020820151816001015560408201518160020160006101000a81548173ffffffffffffffffffffffffffffffffffffffff021916908373ffffffffffffffffffffffffffffffffffffffff1602179055506060820151816003015560808201518160040160006101000a81548160ff02191690831515021790555050505050565b6060600080548060200260200160405190810160405280929190818152602001828054801561040057602002820191906000526020600020905b8160009054906101000a900473ffffffffffffffffffffffffffffffffffffffff1673ffffffffffffffffffffffffffffffffffffffff16815260200190600101908083116103b6575b5050505050905090565b6002818154811061041a57600080fd5b90600052602060002090600502016000915090508060000154908060010154908060020160009054906101000a900473ffffffffffffffffffffffffffffffffffffffff16908060030154908060040160009054906101000a900460ff16905085565b6000818154811061048d57600080fd5b906000526020600020016000915054906101000a900473ffffffffffffffffffffffffffffffffffffffff1681565b60036020528160005260406000206020528060005260406000206000915091509054906101000a900460ff1681565b610581816040516024016104ff919061090c565b6040516020818303038152906040527f41304fac000000000000000000000000000000000000000000000000000000007bffffffffffffffffffffffffffffffffffffffffffffffffffffffff19166020820180517bffffffffffffffffffffffffffffffffffffffffffffffffffffffff8381831617835250505050610584565b50565b60008151905060006a636f6e736f6c652e6c6f679050602083016000808483855afa5050505050565b6000813590506105bc81610ac8565b92915050565b6000813590506105d181610adf565b92915050565b6000813590506105e681610af6565b92915050565b600080604083850312156105ff57600080fd5b600061060d858286016105ad565b925050602061061e858286016105d7565b9150509250929050565b60006020828403121561063a57600080fd5b6000610648848285016105d7565b91505092915050565b6000806040838503121561066457600080fd5b6000610672858286016105d7565b9250506020610683858286016105c2565b9150509250929050565b600061069983836106db565b60208301905092915050565b60006106b1838361080c565b60a08301905092915050565b6106c681610a3c565b82525050565b6106d581610a3c565b82525050565b6106e481610a2a565b82525050565b6106f381610a2a565b82525050565b6000610704826109bc565b61070e81856109f7565b93506107198361099c565b8060005b8381101561074a578151610731888261068d565b975061073c836109dd565b92505060018101905061071d565b5085935050505092915050565b6000610762826109c7565b61076c8185610a08565b9350610777836109ac565b8060005b838110156107a857815161078f88826106a5565b975061079a836109ea565b92505060018101905061077b565b5085935050505092915050565b6107be81610a4e565b82525050565b6107cd81610a4e565b82525050565b60006107de826109d2565b6107e88185610a19565b93506107f8818560208601610a84565b61080181610ab7565b840191505092915050565b60a0820160008201516108226000850182610874565b5060208201516108356020850182610874565b50604082015161084860408501826106bd565b50606082015161085b6060850182610874565b50608082015161086e60808501826107b5565b50505050565b61087d81610a7a565b82525050565b61088c81610a7a565b82525050565b60006020820190506108a760008301846106ea565b92915050565b600060208201905081810360008301526108c781846106f9565b905092915050565b600060208201905081810360008301526108e98184610757565b905092915050565b600060208201905061090660008301846107c4565b92915050565b6000602082019050818103600083015261092681846107d3565b905092915050565b60006020820190506109436000830184610883565b92915050565b600060a08201905061095e6000830188610883565b61096b6020830187610883565b61097860408301866106cc565b6109856060830185610883565b61099260808301846107c4565b9695505050505050565b6000819050602082019050919050565b6000819050602082019050919050565b600081519050919050565b600081519050919050565b600081519050919050565b6000602082019050919050565b6000602082019050919050565b600082825260208201905092915050565b600082825260208201905092915050565b600082825260208201905092915050565b6000610a3582610a5a565b9050919050565b6000610a4782610a5a565b9050919050565b60008115159050919050565b600073ffffffffffffffffffffffffffffffffffffffff82169050919050565b6000819050919050565b60005b83811015610aa2578082015181840152602081019050610a87565b83811115610ab1576000848401525b50505050565b6000601f19601f8301169050919050565b610ad181610a2a565b8114610adc57600080fd5b50565b610ae881610a3c565b8114610af357600080fd5b50565b610aff81610a7a565b8114610b0a57600080fd5b5056fea26469706673582212207d30d379048eb0787cc05421c015f35a66ea8232c6d7b31964050163ef02cdc864736f6c63430008000033",
  "linkReferences": {},
  "deployedLinkReferences": {}
}